:1000000013C02DC02CC02BC02AC029C028C027C0B7
:1000100026C025C024C023C023C021C020C01FC0CB
:100020001EC01DC01CC01BC011241FBECFEFD2E0DC
:10003000DEBFCDBF11E0A0E0B1E0E8E9F1E002C031
:1000400005900D92A632B107D9F721E0A6E2B1E002
:1000500001C01D92AF32B207E1F72CD09BC0D0CFC8
:100060001F920F920FB60F9211248F9381E080930D
:100070002E018F910F900FBE0F901F901895389AF8
:100080003A9A3B98439A85B5886085BD85B584606A
:1000900085BDEEE6F0E08081826080838EE187BDE1
:1000A00078940895409A0895409808954298089544
:1000B000429A0895E4DFFCDFC1E080912E0188239D
:1000C000E1F310922E01339B03C010922D0102C068
:1000D000C0932D0190912D0180912C01981769F00A
:1000E000809124019091250190932A018093290108
:1000F000809128018F5F80932801809128018430AE
:1001000058F080912B01811103C0C0932B0102C0D4
:1001100010922B01109228018091290190912A01BF
:10012000009731F0019790932A018093290102C032
:100130001092280180912B01811103C0B3DFB8DF39
:1001400024C0B2DF9091270180912301981318C039
:1001500010922701E0912601F0E0E050FF4F8081EE
:10016000813011F4A3DF01C0A3DF809126018F5FEE
:100170008093260190912201981710F41092260185
:10018000809127018F5F8093270180912D018093BB
:080190002C0193CFF894FFCF7E
:10019800010001000100000001010100010101004E
:1001A8000101010000000100010001000000000041
:0601B800000021642C018F
:00000001FF
